:400000000040002011000000950E0000950E000008B5044B1A6803F53F5302331A6000F053FF00BFFA46004010B5054C237833B9044B13B10448AFF300800123237010BD1F
:4000400098C1FF1F000000000C2A0000084B10B51BB108480849AFF300800848036803B910BD074B002BFBD0BDE81040184700BF000000000C2A00009CC1FF1F08C1FF1FF5
:400080000000000008B562B600F066FD01F014FA01F040FA01F02AFB01F074FB01F0BEFA00F08AFE40F6B83001F0E6F9194801F061FA194801F05EFA184801F05BFA00204C
:4000C00001F060FD002001F051FD002001F066FD134B1B78012B13D100F09AFE00F056F900F012FA00F01CFB0E4B1A8840F6E44303FB02F31B130C4A13800022084B1A70B3
:400100000A4B1B78012BE3D100F048FE0022074B1A70DDE7102A00001C2A0000302A0000B8C5FF1F6CC2FF1F60C2FF1FC0C5FF1F70B51646002405E04D1C087801F00EFAEF
:4001400001342946B442F7DB304670BD08B501F023FA08BD08B50D4BAA221A705A70EF229A700222DA701871597100231A4605E00649C95C0A44D2B20133DBB2052BF7D960
:40018000024882710721FFF7E1FF08BD74C2FF1F38B500231C4604E0C25C2244D4B20133DBB24A1E9342F7DB835CA34233D10378AA2B30D14378AF2B2DD18378022B07D10F
:4001C000154A037953704179837943EA0123538005468078102802D12146FFF7BBFFA878112802D12146FFF7B5FFA878122802D12146FFF7AFFFA878132802D12146FFF722
:40020000A9FFA878142802D12146FFF7A3FFA8782146FFF79FFF38BD48C2FF1F10B5294B1B7833B9AA2804D1264B01221A70187110BD012B06D1AF2804D1224B02221A7013
:40024000587110BD022B06D1F02804D81D4B03221A70987110BD032B0BD1312809D8194B04221A70D87183F83600002283F8372010BD042B13D1134A92F836207AB1013A3A
:40028000D2B2104981F8362091F837305C1C81F837400B441872A2B905220A7010BD052B0CD1084B00221A7093F837105A1810720531181DC9B2FFF76BFF10BD0022014B45
:4002C0001A7010BDB4C1FF1F08B50D4BAA221A70AF225A7002229A70002218710121D970134605E00649C95C0A44D2B20133DBB2042BF7D9024842710621FFF727FF08BD81
:4003000074C2FF1F08B50D4BAA221A70AF225A7005229A70002218710121D970134605E00649C95C0A44D2B20133DBB2042BF7D9024842710621FFF709FF08BD74C2FF1F9D
:4003400010B5114BAA221A70AF225A70042199700022DA7004781C7144785C7184789C71C078D871D970134605E00749C95C0A44D2B20133DBB2072BF7D90348027209213B
:40038000FFF7E4FE10BD00BF74C2FF1F08B5514B1B88B3F5FA7F04D34F4A1288B2F5FA7F2DD2B3F5FA7F0ED24B4A1288B2F5FA7F09D20622494B1A70494801F0DBF84948E8
:4003C00001F0D8F879E0B3F5FA7F09D20222434B1A70454801F0CEF8424801F0CBF86CE03D4B1B88B3F5FA7F67D203223B4B1A703E4801F0BFF83B4801F0BCF85DE0B3F5E8
:40040000FA7F03D340F6AC518A421ED9B3F5FA7F0DD240F6AC539A4209D904222F4B1A70334801F0A7F82F4801F0A4F845E040F6AC539A4241D90022284B1A702D4801F076
:4004400099F8284801F096F837E040F6AC518B4201D88A421DD940F6AC518B420BD98A4209D905221D4B1A70234801F083F81D4801F080F821E040F6AC5293421DD90322D5
:40048000164B1A701D4801F075F8164801F072F813E040F6AC518B420CD9B2F5FA7F09D207220E4B1A70164801F064F80D4801F061F802E00822094B1A70124B1B78074A81
:4004C0001078834205D0FFF7FFFE044B1A780D4B1A7008BD70C2FF1F44C2FF1F0CC1FF1F442A0000182A0000542A0000602A00006C2A0000782A0000802A0000902A0000AC
:400500009C2A0000F0C1FF1F08B5514B1B88B3F5FA7F04D34F4A1288B2F5FA7F2DD2B3F5FA7F0ED24B4A1288B2F5FA7F09D20622494B5A70494801F01DF8494801F01AF804
:4005400079E0B3F5FA7F09D20222434B5A70454801F010F8424801F00DF86CE03D4B1B88B3F5FA7F67D203223B4B5A703E4801F001F83B4800F0FEFF5DE0B3F5FA7F03D34A
:4005800040F6AC518A421ED9B3F5FA7F0DD240F6AC539A4209D904222F4B5A70334800F0E9FF2F4800F0E6FF45E040F6AC539A4241D90022284B5A702D4800F0DBFF2848EB
:4005C00000F0D8FF37E040F6AC518B4201D88A421DD940F6AC518B420BD98A4209D905221D4B5A70234800F0C5FF1D4800F0C2FF21E040F6AC5293421DD90322164B5A7012
:400600001D4800F0B7FF164800F0B4FF13E040F6AC518B420CD9B2F5FA7F09D207220E4B5A70164800F0A6FF0D4800F0A3FF02E00822094B5A70124B5B78074A507883427D
:4006400005D0FFF75FFE044B5A780D4B5A7008BD68C2FF1F62C2FF1F0CC1FF1F442A0000182A0000542A0000602A00006C2A0000782A0000802A0000902A00009C2A0000BB
:40068000F0C1FF1F642837D9A0F165039BB2B3F5C87F33D3A0F2F5139BB2B3F5FA7F2FD3A0F2E9339BB2B3F5FA7F2BD3A0F2DD539BB2B3F5FA7F27D3A0F2D1739BB2B3F57B
:4006C000FA7F23D3A0F6C5139BB2B3F5FA7F1FD3A0F6B9339BB2B3F5FA7F1BD3A0F6AD539BB2B3F5FA7F17D3A0F6A1739BB2B3F5FA7F13D2642070470020704714207047F7
:400700001E20704728207047322070473C20704746207047502070475A2070470020704770B5154B1888FFF7ADFF144C2071144B1888FFF7A7FF6071124B1888FFF7A2FFA5
:40074000A071002414E00D4B23441A7A1B799A420CD00A4D2E1D3046FFF7F2FD25442B792B7209482146324601F064FA0134E4B2032CE8D970BD00BF5CC2FF1FF0C1FF1FD9
:400780005EC2FF1F66C2FF1FAC2A000008B5034800F0F0FE024800F0EDFE08BDB82A0000182A000008B5034800F0E4FE024800F0E1FE08BDC02A0000182A000008B50348FF
:4007C00000F0D8FE024800F0D5FE08BDCC2A0000182A000008B5034800F0CCFE024800F0C9FE08BDD42A0000182A000008B5034800F0C0FE024800F0BDFE08BDE02A0000E7
:40080000182A000008B5034800F0B4FE024800F0B1FE08BDEC2A0000182A000008B5034800F0A8FE024800F0A5FE08BDFC2A0000182A000008B5034800F09CFE024800F052
:4008400099FE08BD082B0000182A000008B5034800F090FE024800F08DFE08BD182B0000182A000008B5034800F084FE024800F081FE08BD382B0000182A000008B503486D
:4008800000F078FE024800F075FE08BD5C2B0000182A000008B5034800F06CFE024800F069FE08BD7C2B0000182A000008B5034800F060FE024800F05DFE08BDA02B00006B
:4008C000182A000008B5034800F054FE024800F051FE08BDC02B0000182A000008B5034800F048FE024800F045FE08BDE42B0000182A000008B5034800F03CFE024800F0B4
:4009000039FE08BD042C0000182A000038B5044615468378082262F30713837041608847E37860F3C71365F38613E37038BD00BF023140F82120704710B504464368984744
:40094000E37813F0070302D0228801322280E278B0EBD21F11D01146C2F3C202013202F0070262F3C501E170022A0ADDCAB260F3C7126FF3C502E27003E0E2786FF3C502F1
:40098000E270052B00F2D380DFE813F00600260050009500D100B400E378C3F38012B2EBD31F13D1A3786FF30713A370A3680BB12046984700232380A378012262F30303E5
:4009C000A370E37862F30203E37010BDA378082262F30713A37010BDE378C3F38012B2EBD31F10D0A378012262F30713A370E3680BB12046984700232380E378022262F3C3
:400A00000203E37010BD2388642B40F29080A378052262F30713A370E3690BB120469847E378052262F30203E37010BDE378C3F38012B2EBD31F20D1A3786FF30713A3703B
:400A4000A3680BB120469847A3785A1C62F30303A37003F00F03022B03D1A3690BB12046984723690BB12046984700232380E378032262F30203E37010BD23883C2B56D9CA
:400A8000A37803F00F03012B09D1A378032262F30713A37063694BB12046984706E0022B04D1A378042262F30713A370E3786FF30203E37010BDE378C3F38012B2EBD31F82
:400AC00035D0A378012262F30713A370E3680BB12046984723883B2B07D800232380E378022262F30203E37010BDE3786FF30203E37010BDE378C3F38012B2EBD31F09D148
:400B0000A378062262F30713A370236A7BB12046984710BDA378012262F30713A370E3680BB120469847E3786FF30203E37010BD084B1A68134602E0834207D05B6A002B9B
:400B4000FAD14262034B1860002070474FF0FF30704700BFFCC1FF1F38B5704C704D204629460022FFF7D2FE204601216D4AFFF7DFFE2046FFF7DCFF204629460022FFF751
:400B8000C5FE20460021684AFFF7D2FE2046FFF7CFFF664C664D204629460022FFF7B6FE20460121634AFFF7C3FE2046FFF7C0FF204629460022FFF7A9FE204600215E4A79
:400BC000FFF7B6FE2046FFF7B3FF5C4C5C4D204629460022FFF79AFE20460121594AFFF7A7FE2046FFF7A4FF204629460022FFF78DFE20460021544AFFF79AFE2046FFF71B
:400C000097FF524C524D204629460022FFF77EFE204601214F4AFFF78BFE2046FFF788FF204629460022FFF771FE204600214A4AFFF77EFE2046FFF77BFF484C484D2046A7
:400C400029460022FFF762FE20460121454AFFF76FFE2046FFF76CFF204629460022FFF755FE20460021404AFFF762FE2046FFF75FFF3E4C3E4D204629460022FFF746FEA5
:400C8000204601213B4AFFF753FE2046FFF750FF204629460022FFF739FE20460021364AFFF746FE2046FFF743FF344C344D204629460022FFF72AFE20460121314AFFF723
:400CC00037FE2046FFF734FF204629460022FFF71DFE204600212C4AFFF72AFE2046FFF727FF2A4C2A4D204629460022FFF70EFE20460121274AFFF71BFE2046FFF718FF2A
:400D0000204629460022FFF701FE20460021224AFFF70EFE2046FFF70BFF38BD90C5FF1FAD1700008D070000A507000018C5FF1FA1170000BD070000D5070000B8C2FF1F15
:400D4000BD170000ED07000005080000E0C2FF1FCD1700001D080000350800005CC3FF1FDD1700004D0800006508000050C4FF1FED1700007D0800009508000008C3FF1F64
:400D8000FD170000AD080000C5080000D8C3FF1F09180000DD080000F508000010B5054B1C6803E02046FFF7C7FD646A002CF9D110BD00BFFCC1FF1F08B500F0B1FD00F0CF
:400DC000C3FD08BD38B50546002407E0284600F0BFFD0D4B23F814000134E4B2092CF5D90022134605E0084931F913100A440133DBB2092BF7D9054880FB0230D217C2EB1B
:400E0000A00080B238BD00BF04C2FF1F6766666608B50020FFF7D6FF154B18800120FFF7D1FF144B18800220FFF7CCFF124B18800320FFF7C7FF114B18800420FFF7C2FFAB
:400E40000F4B18800520FFF7BDFF0E4B18800620FFF7B8FF0C4B18800720FFF7B3FF0B4B18800820FFF7AEFF094B188008BD00BF6CC2FF1F70C2FF1F44C2FF1F68C2FF1FF6
:400E800062C2FF1F5CC2FF1F5EC2FF1F66C2FF1F6EC2FF1FFEE700BF08B5094B1A681044084BC31AB3F5806F02DC054B186005E000F080FE0C2303604FF0FF32104608BD7A
:400EC00010C1FF1FE8C5FF1F08B5104E104D16E029686B68AC68002204E051F8040B43F8040B0432A242F8D1E868002203E0002143F8041B04328242F9D11035013E002E81
:400F0000E6D100F05DFEFFF7BDF8FEE701000000302D000008B5134A134B1A60134A136843F40073136000230AE0032B03D8104A52F8231000E00F490F4A42F823100133BB
:400F40002F2BF2D90D4B1A780D4B1A700A4A0D4B1A6000F0EBF800F0ABF900220A4B1A6008BD00BF0004FA050CED00E014ED00E000000000950E000000C0FF1FBC760040CE
:400F800004C1FF1F08ED00E000C1FF1FFEE700BFF0B40022174611E050F82760F3B226F0FF0608E001EB420511F812406D78A5550132013BDBB2002BF4D10137252FEBD9C2
:400FC000F0BC704770B41B4B1B78DBB21A480278D2B21A4C2178C9B203F00706184D2E701B0901352B7042F00303037041F0030323703725134B1D70102510331D70032529
:4010000030331D700123104D2B7040250F4E35700236357071260E4D2E70202603352E7035352B702170027044220A4B1A7070BC704700BFCF010049F8460040F9460040AF
:401040006E5800400D5100406D51004001590040205B00407658004008B50A46002100F0E0FD08BD38B50E22244B1A801823244A1370192502321580023213700622214B07
:401080001A700322A3F580731A701F4B1B78DBB21E4A137008221E4B1A8041F25122023B1A8000240CE01B4B1B7803F0010343EA440404F003044FF4F07000F0E9F8013D2B
:4010C0000DB1032CEFD115B90320FFF75FFF124B4FF480721A8007221A7000220F490A704820023108701A700222033B1A700C4A137843F00303137038BD00BF8040004051
:40110000824000400043004008010049A146004022420040254200400440004006400040A243004008B500F071FD08BD70B572B63E4A137843F00403137000240CE03C49A5
:4011400063001A1952000A4423445B00C8589188FFF782FF0134E4B2092CF0D900240BE03349A3001A1952000A44D06B116C8022FFF7D8FF0134E4B2002CF1D04FF090400F
:401180002C49FFF705FF2C480421FFF765FF2B482B490422FFF7C6FF2A4A137843F0020313701032137843F002031370264C237843F040032370A2F58632513A137843F015
:4011C00010031370214822490A22FFF7ABFF214821490822FFF7A6FF204821490822FFF7A1FF204820490A22FFF79CFF1F4820490A22FFF797FF1F481F490822FFF792FFF9
:401200001E4A137843F0080313701D4E01253570FFF728FF812333701A4B1D70FFF7D2FE194821460E22FFF77DFF70BDE8460040282C0000980000480076004008760040FB
:401240005C08004803500140A04300400051004020080048125100402C0800482251004034080048305100403C0800484051004048080048625100405408004822430040C2
:401280000048004004000840B0430040000000000230800803D000BF01380046FCD17047EFF3108072B6704780F31088704700BF0B4A7F2313708021517007E0DA0002F176
:4012C000804202F5F042013BDBB21370002BF5D1DB0003F1804303F5F04300221A70704714C1FF1F172815D831B103010A495A5C42F020025A5405E0030107495A5C02F0B5
:40130000DF025A540001044A835C43F00103835400207047012070471070004017280CD80001074BC1180A7942F004020A71C25C42F00102C254002070470120704700BF17
:401340001070004017280BD80001064A835C03F0F10301F0070143EA4101815400207047012070471070004041F6FF73994201D14FF4005141F6FF739A4201D14FF40052F2
:40138000172808D8C00000F1804000F5EC408180C280002070470120704700BF172805D8034B03EB0010417200207047012070471070004017281BD810B4C00000F18044D6
:4013C00004F5EC44D201D2B201F07F01114321709DF804201201D2B203F00F03134363709DF8083003F00F03A3700020E07001E0012070475DF8044B704700BF10B5FFF7B6
:401400004FFF0A4B5B78182B0BD9084A1478013B5370E30003F1804303F5F0431B78137000E0FF24FFF740FF204610BD14C1FF1F10F0800F0CD111F4704F0BD1C00000F13C
:40144000804000F5F04001808270C37000207047012070470120704710F0800F08D1C00000F1804000F5F0408180C280002070470120704701BE704710B5044605E0084BAD
:401480001868FFF705FFA4F50044B4F5004FF6D8034B586800FB04F0FFF7FAFE10BD00BF1CC1FF1F08B5034B1B7A03FB00F0FFF7EFFE08BD1CC1FF1F7222074B1A702022BA
:4014C000FE3B1A700622623B1A70472210331A70002254331A7070478465004010B5FFF7DFFE04460A4A137843F020031370FE3A137843F0100313700232137843F0100366
:40150000137000F05DF82046FFF7CEFE10BD00BF9465004008B5054B1B7823B9FFF7CCFF0122024B1A70FFF7D9FF08BD18C2FF1F084B1B78DBB213F0200F06D0064A1078E1
:40154000C0B213F01E0F02D17047002070470020704700BF6664004047650040034B1B7813F0040FFAD1024B18707047686400404764004038B5074B1B782BB938BDFFF7F6
:40158000EDFF0134A4B201E005460024285D0028F5D138BD18C2FF1F084B1B7833B97047305DFFF7DBFF0134E4B203E070B50D4606460024AC42F3D370BD00BF18C2FF1FF0
:4015C000054A137843F0020313701032137843F002031370704700BFA243004008B5FFF7A7FFFEF71BFE08BD014B1B685864704708ED00E04001C0B2014B1870704700BFF3
:4016000001E400E00222014B1A60704700E100E00222014B1A60704780E100E008B5FFF7F7FF0448FFF7E0FF0720FFF7E3FFFFF7E9FF08BDDD150000084A137843F001032F
:4016400013701032137843F00103137002F64D32137843F001031370704700BFA3430040014B1870704700BF034F0040014B1880704700BF044F0040014B1880704700BFE5
:40168000064F004008B5164A137803F0010313700232137803F0FC031370124B1A7802F0CF021A701A7842F030021A701A7802F0F0021A701A7842F00F021A700A4A137845
:4016C00043F00103137045F6BF50FFF7CFFF45F6BF50FFF7D1FF0820FFF7C2FF08BD00BF004F00400B4F0040014F004008B5054B1B7823B9FFF7C6FF0122024B1A70FFF7CF
:401700009BFF08BD1AC2FF1F0D4A138801339BB213800C490A88013292B20A80B2F57A7F05D90121084A11800021064A1180052B05D90122054B1A700022014B1A80704713
:40174000BCC5FF1FBAC5FF1FB8C5FF1FC0C5FF1F014B1B689864704708ED00E04001C0B2014B1870704700BF02E400E00422014B1A60704700E100E00422014B1A607047CE
:4017800080E100E008B5FFF7F7FF0448FFF7E0FF0720FFF7E3FFFFF7E9FF08BD09170000014B1878C009704701510040024B1878C0F38010704700BF01510040024B187869
:4017C000C0F3C000704700BF41510040024B1878C0F38000704700BF41510040024B1878C0F34010704700BF41510040024B1878C0F30010704700BF41510040014B1878EA
:40180000C009704741510040024B1878C0F38010704700BF4151004010B5022001214FF4804241F6FF7300F055F9084C20701220012141F6FF72134600F06CF9607004484F
:4018400000F086F9002000F089F910BD1CC2FF1F6D19000070B52C4C2078FFF75FFD6078FFF75CFD294B1B78FF2B03D1FFF7C6FD264B1870254D2A78104612210623FFF7F7
:40188000D7FD214E341DA4B2287845F6A0312246FFF7E2FD30782978FFF780FD6B78FF2B02D1FFF7ABFD6870184D6A78104612210723FFF7BDFD68782146154A92B2FFF7B9
:4018C000CBFD114C60786978FFF768FD20780121FFF708FD60780121FFF704FDFFF7E0FC0C4A137843F020031370FFF7DDFC0A4B1A7842F001021A701A7842F002021A70B6
:401900000122064B1A6070BD1CC2FF1F2CC1FF1FC4C5FF1F936400407764004080E200E008B5074B9B6923B9FFF776FF0122044B9A61FFF78FFF00F0B7F8024B1B7808BDBB
:401940001CC2FF1F6464004008B500F0BBF808BDC0F10800034B33F81030034A1088181A00B27047C4C5FF1FDAC5FF1F704700BF08B50A280FD00C2802D0082806D102E0B5
:401980004FF4805209E04FF4807206E00020FFF771FD002201E04FF480620021094B198042F2107303FB02F303F6C413064A82FB0302DB17C3EBE223044A1360044B1980BA
:4019C00008BD00BFD8C5FF1FAD8BDB68DCC5FF1FDAC5FF1F10B5FFF763FC0446184A137843F0010313701032137843F00103137002F5AA520832137843F003031370182271
:401A0000104B1A70013B1A7842F040021A701A7802F0FC021A70C822053B1A700222A3F597530C3B1A70084A137843F0080313700A20FFF737FD2046FFF736FC10BD00BFB2
:401A4000AB43004006590040275B004010B504460A280DD00C2802D0082804D101E0C22207E0422205E00020FFF704FDC22200E08222034B1A702046FFF77AFF10BD00BF01
:401A80000259004008B5064A137843F0060313700C20FFF7DBFF0022024B1A8008BD00BF01590040E0C5FF1F08B5054B1B7823B9FFF7E8FF0122024B1A70FFF78BFF08BDB6
:401AC00038C2FF1F024A137843F001031370704700590040F0B583B086460F4616461D460B4C01232370002200920192184671463A46FFF75FFC207831462A46FFF734FC55
:401B000020780221FFF71EFC207803B0F0BD00BF2EC1FF1FF0B583B086460F4616461D460A4C0023237000930193184671463A46FFF740FC207831462A46FFF715FC207846
:401B40000221FFF7FFFB207803B0F0BD2FC1FF1F014B1B681864704708ED00E04001C0B2014B1870704700BF00E400E0044A137803F0F703C00000F00800184310707047A4
:401B800020510040044A137803F0FB03800000F0040018431070704720510040044A137803F0EF03000100F0100018431070704720510040014B1868704700BF90C1FF1F40
:401BC0000E4B70B51E460E4C0025E41AA410A54204D056F8253098470135F8E701F096F8084B094C1E46E41AA4100025A54204D056F8253098470135F8E770BD182D00005A
:401C0000182D0000182D0000202D000010B5431E0A44914204D011F8014B03F8014FF8E710BD03460244934202D003F8011BFAE7704700000FB40A4B13B51C6824B1A3693C
:401C400013B9204600F04EF805AB2046A168049A019300F04DF902B0BDE8104004B0704790C1FF1F014900F0A7B800BFA127000010B504460023036043608360818143660E
:401C8000C28103614361836119465C300822FFF7C8FF054B24626362044BA362044BE362044B236310BD00BF4D2400006F240000A7240000CB24000070B568234D1E5D43C6
:401CC0000E4605F1740100F095F8044640B1002180E842000C30A06005F16802FFF7A1FF204670BD836910B5044633BB8364C3640365124B124A1B688262984204BF01239D
:401D0000836100F01FF86060204600F01BF8A060204600F017F80421E06000226068FFF7A7FFA06809210122FFF7A2FFE06812210222FFF79DFF0123A36110BD742C00008D
:401D4000651C0000F8B51B4B07461E68B36913B93046FFF7C7FF4836B4687368013B04D4B4F90C5075B16834F8E733682BB938460421FFF7A1FF306008B13668ECE70C230E
:401D80003B60F8BD4FF6FF73E3810123A38165662560A560656025616561A56104F15C0029460822FFF73DFF6563A563A564E5642046F8BD742C00002DE9F8438046894625
:401DC00000F14804002694B1A5686768013F0CD4AB89012B07D9B5F90E30013303D040462946C84706436835F0E72468EBE73046BDE8F88370B5CC1C24F0030408340C2CBB
:401E000038BF0C24002C064603DA0C233360002070BD8C42F9D3204A136810461946A1B10A68121B0ED40B2A03D90A608B188C501FE08B420BBF5A684A6802605A6018BF19
:401E40000B4616E00B464968E9E7144D2B681BB9304600F0EBFA28603046214600F0E6FA421C0346D1D0C51C25F0030585420AD11C6003F10B001A1D20F00700821A0AD0DA
:401E80005142995070BD3046E91A00F0CFFA0130BBD02B46ECE770BD40C2FF1F3CC2FF1F936810B5013B002B936009DA9469A34202DBCBB20A2B03D1BDE8104000F00ABBF2
:401EC0001368581C10601970C8B210BDF8B506460F461446D518AC4208D0304614F8011B3A46FFF7DDFF431CF5D100E00020F8BD2DE9F0439DB00D4690460393064618B124
:401F000083690BB9FFF7EEFE754B9D4201D1756808E0744B9D4201D1B56803E0724B9D4208BFF568AB891C070AD52B6943B10023099320238DF8293030238DF82A3041E0B8
:401F40003046294600F02CFB0028F0D04FF0FF30C2E0039A0134111D12680391002ABBBF524243F0020307920792B8BF049323782E2B7BD0DFF8808121784046032200F064
:401F800097FC38B1049AC8EB00004023834013430493013421785548062204F101088DF8281000F085FC002800F08580504B002B78D1039B073323F0070308330393099BEC
:401FC0003B44099343461C4613F8012B1AB9B4EB08090ED002E0252AF5D1F8E73046294642464B46FFF772FF013070D0099B4B4409932378002B6AD000234FF0FF3204939E
:402000000793059206938DF853301A9304F101084446DFF8E89021784846052200F048FC08F10108049B30B1C9EB00000122824013430493ECE7D80644BF20228DF85320D2
:40204000190744BF2B228DF8532022782A2A80D0234607991C4622780133303A092A03D80A2000FB0121F5E7079180E763782A2B0AD1039B02341A1D1B680392002BB8BF17
:402080004FF0FF33059375E7611C00220C4623780131303B092B03D80A2000FB0232F5E7059267E703AB0093304604A92A46114BAFF3008007E003AB0093304604A92A465C
:4020C0000C4B00F093F8421C07467FF478AFAB895B063FF53BAF09981DB0BDE8F08300BF782C0000982C0000B82C0000E22C000000000000CD1E0000DE2C0000D82C00007E
:402100002DE9F84391461F468A680B6906469342B8BF1346C9F8003091F843200C46DDF8208012B10133C9F800302368990642BFD9F800300233C9F80030256815F0060540
:402140001CD094F843302268003318BF012392061FD5E118302081F843005A1C94F845102244023382F8431013E03046394604F119020123C047013007D00135E368D9F8EF
:4021800000209B1A9D42F0DBDBE74FF0FF30BDE8F8833046394604F14302C0470130F4D02268D9F80050E36802F00602042A08BF5D1B2269A3680CBF25EAE5750025934204
:4021C000C4BF9B1AED184FF00009A9450ADA3046394604F11A020123C0470130D5D009F10109F2E70020BDE8F88300002DE9FF410C461746227E98466E2A06460A9B01F166
:40220000430100F0B08012D8632A23D00AD8002A00F0BD80582A40F0CC8084F84520DFF804E257E0642A1ED0692A1CD0C1E0732A00F0B18009D86F2A2ED0702A40F0B980EF
:40224000226842F0200222603FE0752A24D0782A3BD0AEE01A6804F14205111D1960136884F84230A9E020681A6810F0800F02D0101D186008E010F0400F02F10400186004
:4022800002D0B2F9003000E01368002B3EDA2D225B4284F8432039E020681A6810F0800F02D0101D186007E010F0400F02F10400186001D0138800E01368227EDFF864E1B7
:4022C0006F2A0CBF08220A221CE07822DFF858E184F845202268186812F0800F00F104051D6003D1550601D5038800E00368D00744BF42F0200222601BB9226822F020026E
:4023000022601022002084F8430002E0DFF814E10A226568002DA8BF2068A560A4BF20F00400206003B965B10D46B3FBF2F002FB10331EF8033005F8013D03460028F4D19C
:4023400000E00D46082A0BD12368DA0708D5236962689A42DEBF302305F8013C05F1FF35491B21612EE025681A6815F0800F606903D0151D1D60136808E015F0400F02F1C1
:4023800004051D60136801D0188000E01860002323610D4616E01A68111D1960156800212846626800F084FA08B1401B6060636804E004F1420584F8422001232361002396
:4023C00084F84330CDF800803046214603AA3B46FFF796FE013002D14FF0FF301FE0304639462A462369C0470130F5D023689B0705D4E068039B9842B8BF18460FE0002506
:40240000E368039A9B1A9D42F3DA3046394604F119020123C0470130DED00135F0E704B0BDE8F081E92C0000FA2C000038B5064C0023054608462360FEF72EFD431C02D162
:40244000236803B12B6038BDE4C5FF1F10B50C46B1F90E1000F07EFA0028ABBF636DA3891B1823F48053ACBF6365A38110BD2DE9F0411D468B890746DB050C46164605D54D
:40248000B1F90E100022022300F0B4F9A389384623F48053A381B4F90E1032462B46BDE8F04100F06BB810B50C46B1F90E1000F0A1F9431CA38915BF606523F4805343F46D
:4024C0008053A38118BFA38110BDB1F90E1000F0D3B8000070B50D461446064618B183690BB9FFF7FFFB224B9C4201D1746808E0204B9C4201D1B46803E01F4B9C4208BF49
:40250000F468A369A360A3891A0709D523693BB123682069EDB2181A636998420FDB08E03046214600F03CF80028F1D04FF0FF3070BD3046214600F033F90028F6D1A368B8
:402540000130013BA36023685A1C22601D706369984204D0A389DB0707D50A2D05D13046214600F01DF90028E0D1284670BD00BF782C0000982C0000B82C000038B5074CC8
:40258000054600202060084611461A46FDF7D0FD431C02D1236803B12B6038BDE4C5FF1F314B70B51D6806460C4625B1AB6913B92846FFF797FB2D4B9C4201D16C6808E05E
:4025C0002B4B9C4201D1AC6803E02A4B9C4208BFEC68A3899AB211071DD4D50602D40922326038E0500712D5616B41B104F14403994202D0304600F069F900236363A38987
:4026000023F02403A3810023636023692360A38943F00803A38123694BB9A38903F42073B3F5007F03D03046214600F0F5F8A38913F0010205D00022A26062695242A26132
:4026400003E0990758BF6269A26022694AB903F0800080B230B143F04003A3814FF0FF3070BD002070BD00BF90C1FF1F782C0000982C0000B82C000038B5064C0023054636
:402680000846236000F09AF9431C02D1236803B12B6038BDE4C5FF1F8A892DE9F041054610070C4657D44B68002B02DC0B6C002B18DDE66AB6B102F48052002392B22F6805
:4026C0002B600AB1626D10E0216A28460123B047411C024609D12B683BB11D2B01D0162B46D12F600020BDE8F081A3895B0705D56368D21A636B0BB1236CD21AE66A0023F6
:402700002846216AB047461CA38905D12A681AB11D2A01D0162A19D1002262602269D904226004D5421C01D12B6803B96065616B2F600029D6D004F14403994202D028463A
:4027400000F0C4F800206063BDE8F08143F04003A381BDE8F0810F69002FC3D093070E680CBF4B690023C7EB06080F608B6012E0A3894FF0FF3043F04003A381BDE8F081C2
:402780002846216A3A464346A66AB0470028EFDD0744C0EB0808B8F1000FF1DCA2E7000038B50B6905460C46DBB118B183690BB9FFF798FA0C4B9C4201D16C6808E00B4B64
:4027C0009C4201D1AC6803E0094B9C4208BFEC68B4F90C302BB128462146BDE83840FFF75BBF002038BD00BF782C0000982C0000B82C000038B5074C054600202060084685
:4028000011461A4600F0F2F8431C02D1236803B12B6038BDE4C5FF1FF0B58B8991B09D0706460C4625D4B1F90E10002908DAA389002513F0800F14BF40274FF480670DE013
:4028400001AA00F099F80028F1DB029D4FF4806705F47045A5F500514D424D4130463946FFF7C8FA60B9A3899A051DD443F00203A38104F14703236023610123636113E0BA
:402880000A4BB362A389206043F08003A381206167614DB13046B4F90E1000F07FF818B1A38943F00103A38111B0F0BD651C000010B5C9B202449042034605D01C780130BF
:4028C0008C42F8D1184610BD002010BD30B500293CD051F8042C0B1F1D49002AB8BF9B180A680C4612B95A600B6030BD93420DD219685818904201BF5A5852181A6042689A
:4029000023605A6030BD994203D80A4651680029F9D1146815199D420AD11B682344D0188842136012D10868034413604B680CE002D90C23036030BD1C681819884201BF03
:4029400008684968001918605960536030BD00BF40C2FF1F38B5074C054600202060084611461A4600F04AF8431C02D1236803B12B6038BDE4C5FF1F38B5074C00230546A5
:4029800008461146236000F021F8431C02D1236803B12B6038BD00BFE4C5FF1F38B5064C002305460846236000F018F8431C02D1236803B12B6038BDE4C5FF1F024B582272
:4029C0001A604FF0FF307047E4C5FF1F024B58221A604FF0FF307047E4C5FF1F024B58221A600020704700BFE4C5FF1F024B58221A604FF0FF307047E4C5FF1F024B5822B2
:402A00001A604FF0FF307047E4C5FF1F00000000496E69745F6F6B200D0A000048617264776172652D2D56352E300D0A00000000536F6674776172652D2D562E432E312EAB
:402A4000300D0A004341525F444F574E5F4C4546540000004341525F4C454654000000004341525F444F574E000000004341525F55505F4C454654004341525F555000000D
:402A80004341525F55505F5249474854000000004341525F52494748540000004341525F444F574E5F524947485400006C65642564203A2025640000737472315F757000D3
:402AC000737472315F646F776E000000737472325F757000737472325F646F776E0000004D53525F6C6F775F757000004D53525F6C6F775F646F776E000000004D53525FD2
:402B0000686967685F7570004D53525F686967685F646F776E00000043616C6C6261636B5F5357495443485F315F6C6F775F70726573735F7570000043616C6C6261636B4D
:402B40005F5357495443485F315F6C6F775F70726573735F646F776E0000000043616C6C6261636B5F5357495443485F315F686967685F70726573735F75700043616C6C27
:402B80006261636B5F5357495443485F315F686967685F70726573735F646F776E00000043616C6C6261636B5F5357495443485F325F6C6F775F70726573735F75700000D1
:402BC00043616C6C6261636B5F5357495443485F325F6C6F775F70726573735F646F776E0000000043616C6C6261636B5F5357495443485F325F686967685F707265737358
:402C00005F75700043616C6C6261636B5F5357495443485F325F686967685F70726573735F646F776E000000004F00400C00505100401000C05100401000F0510040100061
:402C400000000140001000140140800200170140000500400140000A004C0140000200500140200080160140A0070048800000004300000030C1FF1F00000000000000006C
:402C80000000000000000000000000000000000000000000000000000000000000000000000000000000000000000000000000000000000000000000000000000000000014
:402CC000000000000000000000000000000000000000000000000000232D302B2000686C4C0065666745464700303132333435363738394142434445460030313233343514
:402D0000363738396162636465660000F8B500BFF8BC08BC9E4670474D000000150F0000F8B500BFF8BC08BC9E46704729000000402D000008C1FF1F900000005004000090
:402D40000000000008080000E8C5FF1F7F800000030000000000E02EC05D00001800000000366E01FFFFFFFF00000000782C0000982C0000B82C0000000000000000000046
:402D80000000000000000000702C00000000000000000000000000000000000000000000000000000000000000000000000000000000000000000000000000000000000077
:402DC000000000000000000030C1FF1F00000000000000000000000000000000000000000000000000000000000000000000000000000000000000000000000000000000C4
:402E00000000000000000000000000000000000000000000000000000000000000000000000000000000000000000000000000000000000000000000000000000000000092
:402E40000000000000000000000000000000000000000000000000000000000000000000000000000000000000000000000000000000000000000000000000000000000052
:402E80000000000000000000000000000000000000000000000000000000000000000000000000000000000000000000000000000000000000000000000000000000000012
:402EC00000000000000000000000000000000000000000000000000000000000000000000000000000000000000000000000000000000000000000000000000000000000D2
:020000040001F9
:0200000480007A
:40000000024F004009520040015B00400364004001650040320001402F010140250201404803014035040140430501404406014050070140170801403B090140040B014078
:40004000040C01400A0D01403114014048150140031601404917014008190140031B014011400140124101400F420140084301400244014001450140054601400947014088
:400080000248014008490140044C0140024D0140085001400251014001800A4B0035012304C0081018081C042002210324FC278483088638880F8472000101040408070882
:4000C00009010E100F0411101202132015201608171019081F012180220423402402254027802A012B022C042D0231FF341F38203E103F01580459045F0183028603880374
:400100008C03960398029A019C03AB01AC03B102B201B402B701D804D904DF010080012402800340048005040608070408110A220C400F24115112101740180419201B10CC
:400140001C101F202080248025012680281129452A102C402D14302832913504368038A039553B043D413E083F2080108720C0EFC2EFC48FCAEFCC5FCEFF000F01010406EE
:4001800006090701080F0B010C0F1501160F180C1A031D012002220D2301290130043101320834023601580459045F018B028E019701B102B201B501D602D739D804D9041A
:4001C000DB0CDF01035105240602074408400A220B040F2411021210144019041A201E401F54220123042602284029042A102C402D20320433503504374039103A0A3B04D2
:400200003D023E023F2459015A105B016208682869116A086B0170107140794087148B048D0494209501960297049B409C409D459E109F04A101A240A310A428AE40B404B5
:40024000C0FDC267C41CCAA7CC5ECEE7D604D802DE08E6400203041407010C300E0C102C11031211144018101C091E102103281C29022A222F04301F3103330436603880D1
:4002800039023A203F014004450449FF4A074BFF4C404D204EF04F0550085401580459045A045B0C5C015D015F01604061A862406320D608D804D904DB04DD90DF01010294
:4002C000022204200504060607400A410B280F04100414401640171419021A852109280429412A082B042C402E202F21310432023370350437403A563B023F0441014508A0
:40030000463047044B085010531059805E8064027940930495409610984099449A0A9B409E109F14A240A608AA40AE02B340C0BDC24FC472CAFFCC5FCE4FD001D618D810D0
:40034000DE08EE81120124012E023003360354185604580459045B045C095D105F01840F86F0888289048CF38D018E0C92F3940C98FF9B089C089F08A0C3A104A41CA6E302
:40038000A841AC04AF03B0C0B102B21CB304B42CB501B60FB708B908BAA0BF44C056C104C50BC60CC70EC815C9FFCAFFCBFFCEF0CF44D00CD203D302D804D90CDA04DB04B3
:4003C000DC01DD01DF01E6C0EA40EB020004030509880A040B800E8010011128128014021708180419021A221B081D401E80204022082309288029402C402E202F013080DE
:40040000321035043750384039103F0442404A224B20504051045A025B015D0265106601670169506A10794080C082018580870888408F4090209285932E95409650984226
:4004400099049A269B409D819F10A62AA704B108C007C21FC4AFCAB9CC7CCE4CD001D20CD680D8B0DE08E001E601EE04150135013F1054015604580459045B045D105F01E7
:400480008D028F0193039D03A103A503A903AD03B101B502D804D904DF01008001200301044005200620082A09020C020E20100212101402170121012210270828222A3007
:4004C0002B402C022D202F203002324034023540360838403C803E203FA05D015E505F0866018210882089418A108D208E509E01A042A102A310B102C0E3C23EC495CA7FF7
:40050000CCD9CE38D6F0D880E090E601EC20EE049E01A042A310AA40B802BE01D804DF011A8088408E018F10A002B402E010E420E640EC400204043C053E064108040B0134
:400540000E030F0110801101143C15241642170A187F193E1C671D081E181F302010210124082512270C28182B013080321F3306342035013640373838803A083E113F1006
:4005800056025711580459045B045C115D105F01D804D904DF01000401810204044005040602074009040A960F0410A0132014401620171019201A501B80228423082901DB
:4005C0002A042B042C402E2032963504375038A039043C403F04592069046A206B0270A07188732081108284830888218E4090A491019286930495049628984099859A22F8
:400600009B509C019E809F02A202A304A59CA680A780C0BFC24FC47ECAA7CC7FCE5ED604E004E640E810580459045F0101040206038004400504060207400A610B0A0F042C
:4006400010081210130214401620171019911A401B042001220A29012A902B042C402E20328633043504375038A03B023C403F0440814204430849804B8050887C807E0181
:400680008501860890A49287930C96409780984099049A269B509C019D119F04A308A480A59CA682A704AB10B104B602C0BFC24FC47ECAADCC7BCE5DD00FD208EA049640FC
:4006C000A802B101B208B448B720E840EC8082409640E810122016803080320437183B023E8054015A8082408401C430CCF0CE60D480D620E6905402570858406680671037
:40070000844087088F08960897029F18A480AE20D4C0D6A0D880E650EC4012805B02960897029B029F10A480A802AB02AE80B310C410D640EA60EE80831084809F10A48041
:40074000AB01AE84E230EE205220D404A6201B042501A620C608C801440281018A208F01A101A620AB04D004E0062408C8200304562083048E20B404C040D440E08067029B
:4007800093029C02D601B402E8080003010108010A030B010C0310031A0300EF100A00000000400820000000000003050103160401030E0C200000400000080000001C20CA
:4007C000200300041C000300000A4004000000501A0F0F104000206000000A02000010404502030001000C0E14FFFFFF62A0F0410C000000000000000404040011010001DD
:400800000000000000004002001030100010101200000000000000000000000000000000C00000C000000037370000000000000000101000001C1C0000000000080004089A
:400840000800080000000000FC0000FC0000000303000000000000000001010000010000000000000000000000000000000000000000000000000000000000000000000067
:400880000000000000000000000000000000000000000000000000000000000000000000000000000000000000000000000000000000000000000000000000000000000038
:4008C00000000000000000000000000000000000000000000000000000000000000000000000000000000000000000000000000000000000000000000000000000000000F8
:4009000000000000000000000000000000000000000000000000000000000000000000000000000000000000000000000000000000000000000000000000000000000000B7
:400940000000000000000000000000000000000000000000000000000000000000000000000000000000000000000000000000000000000000000000000000000000000077
:0200000490006A
:0400000000004005B7
:0200000490105A
:04000000BC90ACAF55
:0200000490303A
:0200000071C0CD
:0200000490402A
:4000000000000000000000000000000000000000000000000000000000000000000000000000000000000000000000000000000000000000000000000000000000000000C0
:400040000000000000000000000000000000000000000000000000000000000000000000000000000000000000000000000000000000000000000000000000000000000080
:0200000490501A
:0C00000000012E13306900012E26A229F9
:00000001FF