:400000000040002011000000E10F0000E10F000008B5044B1A6803F53F5302331A6000F0F9FF00BFFA46004010B5054C237833B9044B13B10448AFF300800123237010BDDF
:4000400098C1FF1F000000008C2F0000084B10B51BB108480849AFF300800848036803B910BD074B002BFBD0BDE81040184700BF000000008C2F00009CC1FF1F08C1FF1FEB
:400080000000000038B562B601F030FE00F00AFE01F0A6FA01F0D4FA01F0ACFB01F008FC01F040FB00F02EFF40F6B83001F078FA012001F0FDFD012001F0EEFD012001F062
:4000C00003FE002411E0032C05DCA0B201F07CFE1F4B185508E0072C06DC251FA0B201F073FE1B4B1D4468720134072CEBDD184B08221A725A74174B1B78012B0BD1164B3B
:400100001A8840F6E44303FB02F31B13134A13800022104B1A70124B1B78012B0CD100F01DFF00F061FA00F0D3FA00F01BFC00F091FB00220A4B1A700A4B1B78012BDAD158
:4001400000F0D2FE0022074B1A7000F007F9D2E754C2FF1FCCC5FF1F80C2FF1F76C2FF1FCEC5FF1FD8C5FF1F70B51646002405E04D1C087801F088FA01342946B442F7DBC1
:40018000304670BD08B501F08BFA08BD08B50D4BAA221A705A70EF229A700222DA701871597100231A4605E00649C95C0A44D2B20133DBB2052BF7D9024882710721FFF7C9
:4001C000E1FF08BD88C2FF1F38B500231C4604E0C25C2244D4B20133DBB24A1E9342F7DB835CA34238D10378AA2B35D14378AB2B32D18378022B05D14279837943EA022304
:40020000164A938205468078102802D12146FFF7BDFFA878112802D12146FFF7B7FFA878122802D12146FFF7B1FFA878132802D12146FFF7ABFFAB78322B0DD12979687953
:40024000032902D8054B585404E0072902D8044B0B44587201F04EFD38BD00BF54C2FF1F50C2FF1F10B5294B1B7833B9AA2804D1264B01221A70187110BD012B06D1AB2829
:4002800004D1224B02221A70587110BD022B06D1F02804D81D4B03221A70987110BD032B0BD1312809D8194B04221A70D87183F83600002283F8372010BD042B13D1134A50
:4002C00092F836207AB1013AD2B2104981F8362091F837305C1C81F837400B441872A2B905220A7010BD052B0CD1084B00221A7093F837105A1810720531181DC9B2FFF764
:4003000063FF10BD0022014B1A7010BDB4C1FF1F10B582B0104BAA241C705C7009249C70002418715971ADF80620110A9971DA710422DA702346224605E00749C95C0A44EA
:40034000D2B20133DBB2072BF7D9034802720921FFF718FF02B010BD88C2FF1F08B52C4B93F838202B4BA3FB0213DB0803EB83035B00D31ADBB2092B02D10121264B99704A
:4003800002F00703072B02D10121234B5970214BA3FB02131B0903EB83039B00D31ADBB2132B02D101211C4B59721A4BA3FB02131B0903EB83039B00D31ADBB2132B02D1DC
:4003C0000121154BD972154BA3FB02131B09322101FB1323DBB2312B02D101210E4B197301320B4B83F838200B4B1B781BB10022094B1A7008BD084B5B7843B10022064B4E
:400400005A70074B9878D9781A88FFF781FF08BDB4C1FF1FCDCCCCCCBCC2FF1F1F85EB5180C2FF1F08B50D4BAA221A70AF225A7002229A70002218710121D970134605E03A
:400440000649C95C0A44D2B20133DBB2042BF7D9024842710621FFF795FE08BD88C2FF1F08B50D4BAA221A70AF225A7005229A70002218710121D970134605E00649C95C9D
:400480000A44D2B20133DBB2042BF7D9024842710621FFF777FE08BD88C2FF1F00B583B0104BAA221A70AF225A7003229A700022ADF80600010A197158710221D97013469B
:4004C00005E00849C95C0A44D2B20133DBB2052BF7D9044882710721FFF754FE03B05DF804FB00BF88C2FF1F08B50D4BAA221A70AF225A7008229A70002218710121D970E1
:40050000134605E00649C95C0A44D2B20133DBB2042BF7D9024842710621FFF733FE08BD88C2FF1F08B50D4BAA221A70AF225A700A229A70002218710121D970134605E06F
:400540000649C95C0A44D2B20133DBB2042BF7D9024842710621FFF715FE08BD88C2FF1F08B50D4BAA221A70AF225A7010229A70002218710121D970134605E00649C95C11
:400580000A44D2B20133DBB2042BF7D9024842710621FFF7F7FD08BD88C2FF1F10B5114BAA221A70AF225A70042199700022DA7004781C7144785C7184789C71C078D871A6
:4005C000D970134605E00749C95C0A44D2B20133DBB2072BF7D9034802720921FFF7D2FD10BD00BF88C2FF1F08B5344B1B88B3F5FA7F08D2324A1288B2F5FA7F03D20622BB
:40060000304B1A704AE0B3F5FA7F09D22C4A118840F6AC52914203D904222A4B1A703DE040F6AC52934209D9254A118840F6AC52914203D90522234B1A702FE040F6AC5223
:40064000934208D91E4A1288B2F5FA7F03D207221C4B1A7022E0B3F5FA7F03D20322194B1A701BE0164A1288B2F5FA7F03D20022144B1A7012E040F6AC518A4203D90122C3
:40068000104B1A700AE040F6AC52934203D902220C4B1A7002E008220A4B1A700A4B1A78084B1B789A4207D0084AD05CFFF7BAFE044B1A78044B1A7008BD00BF86C2FF1F46
:4006C00050C2FF1F0CC1FF1FF0C1FF1F54C2FF1F08B5344B1B88B3F5FA7F08D2324A1288B2F5FA7F03D20622304B5A704AE0B3F5FA7F09D22C4A118840F6AC52914203D972
:4007000004222A4B5A703DE040F6AC52934209D9254A118840F6AC52914203D90522234B5A702FE040F6AC52934208D91E4A1288B2F5FA7F03D207221C4B5A7022E0B3F50E
:40074000FA7F03D20222194B5A701BE0164A1288B2F5FA7F03D20022144B5A7012E040F6AC518A4203D90122104B5A700AE040F6AC52934203D903220C4B5A7002E008226E
:400780000A4B5A700A4B5A78084B5B789A4208D0084A1344587AFFF763FE044B5A78044B5A7008BD7EC2FF1F78C2FF1F0CC1FF1FF0C1FF1F54C2FF1F642837D9A0F165030F
:4007C0009BB2B3F5C87F33D3A0F2F5139BB2B3F5FA7F2FD3A0F2E9339BB2B3F5FA7F2BD3A0F2DD539BB2B3F5FA7F27D3A0F2D1739BB2B3F5FA7F23D3A0F6C5139BB2B3F5CC
:40080000FA7F1FD3A0F6B9339BB2B3F5FA7F1BD3A0F6AD539BB2B3F5FA7F17D3A0F6A1739BB2B3F5FA7F13D26420704700207047142070471E20704728207047322070478A
:400840003C20704746207047502070475A2070470020704738B5124B1888FFF7ADFF114C2071114B1888FFF7A7FF60710F4B1888FFF7A2FFA07100240EE00A4B23441A7A32
:400880001B799A4206D0074D281DFFF787FE25442B792B720134E4B2032CEED938BD00BF72C2FF1FF0C1FF1F74C2FF1F7CC2FF1F642838D9A0F165039BB2B3F5C87F35D314
:4008C000A0F2F5139BB2B3F5FA7F32D3A0F2E9339BB2B3F5FA7F2FD3A0F2DD539BB2B3F5FA7F2CD3A0F2D1739BB2B3F5FA7F29D3A0F6C5139BB2B3F5FA7F26D3A0F6B93307
:400900009BB2B3F5FA7F23D3A0F6AD539BB2B3F5FA7F20D3A0F6A1739BB2B3F5FA7F1DD244F62060704741F2707070474FF4FA50704742F21070704743F2C820704743F65E
:40094000982070474FF47A50704744F26820704744F25060704744F63820704743F2B060704700BF10B5094B1888FFF7A1FF084B9881DB89984208D0FFF790FD044C05483D
:40098000A18901F017FCA389E38110BD84C2FF1FF0C1FF1F902F00000022014B9A70704780C2FF1F0122014B9A70704780C2FF1F0022014B9A70704780C2FF1F0222014B9C
:4009C0009A70704780C2FF1F0022014BDA70704780C2FF1F0122014BDA70704780C2FF1F0022014BDA70704780C2FF1F0222014BDA70704780C2FF1F08B50020FFF7B0FD17
:400A000008BD00BF08B50120FFF7AAFD08BD00BF08B50020FFF786FD08BD00BF08B50120FFF780FD08BD00BF08B50220FFF75CFD08BD00BF08B50120FFF756FD08BD00BF27
:400A400008B50220FFF750FD08BD00BF08B50020FFF74AFD08BD00BF38B5044615468378082262F30713837041608847E37860F3C71365F38613E37038BD00BF023140F8BE
:400A80002120704710B5044643689847E37813F0070302D0228801322280E278B0EBD21F11D01146C2F3C202013202F0070262F3C501E170022A0ADDCAB260F3C7126FF39E
:400AC000C502E27003E0E2786FF3C502E270052B00F2D380DFE813F00600260050009500D100B400E378C3F38012B2EBD31F13D1A3786FF30713A370A3680BB12046984784
:400B000000232380A378012262F30303A370E37862F30203E37010BDA378082262F30713A37010BDE378C3F38012B2EBD31F10D0A378012262F30713A370E3680BB120469B
:400B4000984700232380E378022262F30203E37010BD2388642B40F29080A378052262F30713A370E3690BB120469847E378052262F30203E37010BDE378C3F38012B2EB0E
:400B8000D31F20D1A3786FF30713A370A3680BB120469847A3785A1C62F30303A37003F00F03022B03D1A3690BB12046984723690BB12046984700232380E378032262F362
:400BC0000203E37010BD23883C2B56D9A37803F00F03012B09D1A378032262F30713A37063694BB12046984706E0022B04D1A378042262F30713A370E3786FF30203E370DA
:400C000010BDE378C3F38012B2EBD31F35D0A378012262F30713A370E3680BB12046984723883B2B07D800232380E378022262F30203E37010BDE3786FF30203E37010BD13
:400C4000E378C3F38012B2EBD31F09D1A378062262F30713A370236A7BB12046984710BDA378012262F30713A370E3680BB120469847E3786FF30203E37010BD084B1A6815
:400C8000134602E0834207D05B6A002BFAD14262034B1860002070474FF0FF30704700BF00C2FF1F38B5704C704D204629460022FFF7D2FE204601216D4AFFF7DFFE204602
:400CC000FFF7DCFF204629460022FFF7C5FE20460021684AFFF7D2FE2046FFF7CFFF664C664D204629460022FFF7B6FE20460121634AFFF7C3FE2046FFF7C0FF2046294668
:400D00000022FFF7A9FE204600215E4AFFF7B6FE2046FFF7B3FF5C4C5C4D204629460022FFF79AFE20460121594AFFF7A7FE2046FFF7A4FF204629460022FFF78DFE204694
:400D40000021544AFFF79AFE2046FFF797FF524C524D204629460022FFF77EFE204601214F4AFFF78BFE2046FFF788FF204629460022FFF771FE204600214A4AFFF77EFE22
:400D80002046FFF77BFF484C484D204629460022FFF762FE20460121454AFFF76FFE2046FFF76CFF204629460022FFF755FE20460021404AFFF762FE2046FFF75FFF3E4CBB
:400DC0003E4D204629460022FFF746FE204601213B4AFFF753FE2046FFF750FF204629460022FFF739FE20460021364AFFF746FE2046FFF743FF344C344D2046294600223D
:400E0000FFF72AFE20460121314AFFF737FE2046FFF734FF204629460022FFF71DFE204600212C4AFFF72AFE2046FFF727FF2A4C2A4D204629460022FFF70EFE20460121C4
:400E4000274AFFF71BFE2046FFF718FF204629460022FFF701FE20460021224AFFF70EFE2046FFF70BFF38BDA4C5FF1FD9180000F9090000050A00002CC5FF1FCD180000C6
:400E8000110A00001D0A0000CCC2FF1FE9180000290A0000350A0000F4C2FF1FF9180000410A00004D0A000070C3FF1F0919000099090000A509000064C4FF1F191900000F
:400EC000B1090000BD0900001CC3FF1F29190000C9090000D5090000ECC3FF1F35190000E1090000ED09000010B5054B1C6803E02046FFF7C7FD646A002CF9D110BD00BF9C
:400F000000C2FF1F08B500F0A1FD00F0B3FD08BD38B50546002407E0284600F0AFFD0D4B23F814000134E4B2092CF5D90022134605E0084931F913100A440133DBB2092B3E
:400F4000F7D9054880FB0230D217C2EBA00080B238BD00BF08C2FF1F6766666608B50020FFF7D6FF154B18800120FFF7D1FF144B18800220FFF7CCFF124B18800320FFF79B
:400F8000C7FF114B18800420FFF7C2FF0F4B18800520FFF7BDFF0E4B18800620FFF7B8FF0C4B18800720FFF7B3FF0B4B18800820FFF7AEFF094B188008BD00BF80C2FF1FC8
:400FC00086C2FF1F50C2FF1F7EC2FF1F78C2FF1F72C2FF1F74C2FF1F7CC2FF1F84C2FF1FFEE700BF08B5094B1A681044084BC31AB3F5806F02DC054B186005E001F09AF8DF
:401000000C2303604FF0FF32104608BD10C1FF1F08C6FF1F08B5104E104D16E029686B68AC68002204E051F8040B43F8040B0432A242F8D1E868002203E0002143F8041B77
:4010400004328242F9D11035013E002EE6D101F077F8FFF717F8FEE7010000008C30000008B5134A134B1A60134A136843F40073136000230AE0032B03D8104A52F8231068
:4010800000E00F490F4A42F8231001332F2BF2D90D4B1A780D4B1A700A4A0D4B1A6000F0E9F800F099F900220A4B1A6008BD00BF0004FA050CED00E014ED00E00000000062
:4010C000E10F000000C0FF1FBC76004004C1FF1F08ED00E000C1FF1FFEE700BFF0B40022174611E050F82760F3B226F0FF0608E001EB420511F812406D78A5550132013B0E
:40110000DBB2002BF4D10137222FEBD9F0BC704770B41C4B1B78DBB21B480278D2B21B4C2178C9B203F00706194D2E701B0901352B7042F00303037041F003032370372531
:40114000144B1D70102510331D70032530331D700825B0331D7040230F4D2B7002352B70F1250E4B1D70202503331D70812535331D70217002704422A3F2E2231A7070BC45
:40118000704700BFCF010049F8460040F94600406E5800400D51004001590040205B004008B50A46002100F0FCFF08BD38B50E22244B1A801823244A137019250232158073
:4011C000023213700622214B1A700322A3F580731A701F4B1B78DBB21E4A137008221E4B1A8041F25122023B1A8000240CE01B4B1B7803F0010343EA440404F003044FF40E
:40120000F07000F0D9F8013D0DB1032CEFD115B90320FFF761FF124B4FF480721A8007221A7000220F490A704820023108701A700222033B1A700C4A137843F00303137062
:4012400038BD00BF80400040824000400043004008010049A146004022420040254200400440004006400040A243004008B500F08DFF08BD70B572B6364A137843F00403B2
:40128000137000240CE0344963001A1952000A4423445B00C8589188FFF782FF0134E4B2072CF0D94FF090402C49FFF717FF2C480421FFF775FF2B482B490422FFF7D6FF44
:4012C0002A4A137843F0020313701032137843F002031370264C237843F040032370A2F58632513A137843F010031370214822490A22FFF7BBFF214821490822FFF7B6FF10
:40130000204821490822FFF7B1FF204820490822FFF7ACFF1F4820490A22FFF7A7FF1F481F490A22FFF7A2FF1E4A137843F0080313701D4E01253570FFF738FF81233370E7
:401340001A4B1D70FFF7E4FE194821460E22FFF78DFF70BDE84600409C2F00008C00004800760040087600404408004803500140A04300400051004008080048F2510040C4
:4013800014080048125100401C0800482251004024080048305100402C0800484051004038080048224300400048004004000840B0430040000000000230800803D000BF05
:4013C00001380046FCD17047EFF3108072B6704780F31088704700BF0B4A7F2313708021517007E0DA0002F1804202F5F042013BDBB21370002BF5D1DB0003F1804303F5D6
:40140000F04300221A70704714C1FF1F172815D831B103010A495A5C42F020025A5405E0030107495A5C02F0DF025A540001044A835C43F0010383540020704701207047AB
:401440001070004017280CD80001074BC1180A7942F004020A71C25C42F00102C254002070470120704700BF1070004017280BD80001064A835C03F0F10301F0070143EA31
:401480004101815400207047012070471070004041F6FF73994201D14FF4005141F6FF739A4201D14FF40052172808D8C00000F1804000F5EC408180C280002070470120E4
:4014C000704700BF172805D8034B03EB0010417200207047012070471070004017281BD810B4C00000F1804404F5EC44D201D2B201F07F01114321709DF804201201D2B25B
:4015000003F00F03134363709DF8083003F00F03A3700020E07001E0012070475DF8044B704700BF10B5FFF74FFF0A4B5B78182B0BD9084A1478013B5370E30003F1804386
:4015400003F5F0431B78137000E0FF24FFF740FF204610BD14C1FF1F10F0800F0CD111F4704F0BD1C00000F1804000F5F04001808270C370002070470120704701207047FD
:4015800010F0800F08D1C00000F1804000F5F0408180C280002070470120704701BE704710B5044605E0084B1868FFF705FFA4F50044B4F5004FF6D8034B586800FB04F064
:4015C000FFF7FAFE10BD00BF1CC1FF1F08B5034B1B7A03FB00F0FFF7EFFE08BD1CC1FF1F7222084B1A70202201331A700622A3F263131A70472210331A7000224E331A70B4
:40160000704700BF8565004010B5FFF7DDFE04460A4A137843F0200313700132137843F010031370A2F20512137843F01003137000F04AF82046FFF7CBFE10BD956500408E
:4016400008B5054B1B7823B9FFF7CAFF0122024B1A70FFF7D9FF08BD1CC2FF1F084B1B78DBB213F0200F06D0064A1078C0B213F01E0F02D17047002070470020704700BFBA
:401680006665004046640040034B1B7813F0040FFAD1024B187070476164004042640040084B1B7833B97047305DFFF7EDFF0134E4B203E070B50D4606460024AC42F3D3BA
:4016C00070BD00BF1CC2FF1F054A137843F0020313701032137843F002031370704700BFA243004008B5FFF7B9FFFEF7BBFD08BD014B1B685864704708ED00E04001C0B2A3
:40170000014B1870704700BF01E400E00222014B1A60704700E100E00222014B1A60704780E100E008B5FFF7F7FF0448FFF7E0FF0720FFF7E3FFFFF7E9FF08BDE5160000EF
:40174000084A137843F0010313701032137843F00103137002F64D32137843F001031370704700BFA3430040014B1870704700BF034F0040014B1880704700BF044F00402A
:40178000014B1880704700BF064F004008B5164A137803F0010313700232137803F0FC031370124B1A7802F0CF021A701A7842F030021A701A7802F0F0021A701A7842F064
:4017C0000F021A700A4A137843F00103137045F6BF50FFF7CFFF45F6BF50FFF7D1FF0820FFF7C2FF08BD00BF004F00400B4F0040014F004008B5054B1B7823B9FFF7C6FF44
:401800000122024B1A70FFF79BFF08BD1EC2FF1F144A138801339BB21380134A1188013189B2118011480288013292B20280B1F57A7F05D901200E49088000200A49088006
:40184000642A05D901210B4A11700021074A1180052B05D90122084B1A700022014B1A80704700BFD2C5FF1FD0C5FF1FD4C5FF1FCCC5FF1FCEC5FF1FD8C5FF1F014B1B686C
:401880009864704708ED00E04001C0B2014B1870704700BF02E400E00422014B1A60704700E100E00422014B1A60704780E100E008B5FFF7F7FF0448FFF7E0FF0720FFF7AE
:4018C000E3FFFFF7E9FF08BD11180000014B1878C009704701510040024B1878C0F38010704700BF01510040024B1878C0F3C000704700BF41510040024B1878C0F380007C
:40190000704700BF41510040024B1878C0F34010704700BF41510040024B1878C0F30010704700BF41510040014B1878C009704741510040024B1878C0F38010704700BF8B
:401940004151004010B5022001214FF4804241F6FF7300F055F9084C20701220012141F6FF72134600F06CF96070044800F086F9002000F089F910BD20C2FF1F991A000075
:4019800070B52C4C2078FFF75DFD6078FFF75AFD294B1B78FF2B03D1FFF7C4FD264B1870254D2A78104612210623FFF7D5FD214E341DA4B2287845F6A0312246FFF7E0FD3D
:4019C00030782978FFF77EFD6B78FF2B02D1FFF7A9FD6870184D6A78104612210723FFF7BBFD68782146154A92B2FFF7C9FD114C60786978FFF766FD20780121FFF706FD69
:401A000060780121FFF702FDFFF7DEFC0C4A137843F020031370FFF7DBFC0A4B1A7842F001021A701A7842F002021A700122064B1A6070BD20C2FF1F2CC1FF1FDCC5FF1F83
:401A4000946400407564004080E200E008B5074B9B6923B9FFF776FF0122044B9A61FFF78FFF00F0B7F8024B1B7808BD20C2FF1F6664004008B500F0BBF808BDC0F108005C
:401A8000034B33F81030034A1088181A00B27047DCC5FF1FF2C5FF1F704700BF08B50A280FD00C2802D0082806D102E04FF4805209E04FF4807206E00020FFF76FFD002269
:401AC00001E04FF480620021094B198042F2107303FB02F303F6C413064A82FB0302DB17C3EBE223044A1360044B198008BD00BFF0C5FF1FAD8BDB68F4C5FF1FF2C5FF1FBA
:401B000010B5FFF761FC0446184A137843F0010313701032137843F00103137002F5AA520832137843F0030313701822104B1A70013B1A7842F040021A701A7802F0FC0234
:401B40001A70C822053B1A700222A3F597530C3B1A70084A137843F0080313700A20FFF735FD2046FFF734FC10BD00BFAB43004006590040275B004010B504460A280DD0FB
:401B80000C2802D0082804D101E0C22207E0422205E00020FFF702FDC22200E08222034B1A702046FFF77AFF10BD00BF0259004008B5064A137843F0060313700C20FFF75B
:401BC000DBFF0022024B1A8008BD00BF01590040F8C5FF1F08B5054B1B7823B9FFF7E8FF0122024B1A70FFF78BFF08BD3CC2FF1F024A137843F00103137070470059004074
:401C0000F0B583B086460F4616461D460B4C01232370002200920192184671463A46FFF75DFC207831462A46FFF732FC20780221FFF71CFC207803B0F0BD00BF2EC1FF1F83
:401C4000F0B583B086460F4616461D460A4C0023237000930193184671463A46FFF73EFC207831462A46FFF713FC20780221FFF7FDFB207803B0F0BD2FC1FF1F014B1B68B2
:401C80001864704708ED00E04001C0B2014B1870704700BF00E400E0044A137803F0F703C00000F0080018431070704720510040044A137803F0FB03800000F00400184301
:401CC0001070704720510040044A137803F0EF03000100F010001843107070472051004008B500F0DBF800F0E3F808BD08B5FFF7F7FF08BD30B583B00C468DF8070000F096
:401D000017F9B4F5006F54D22509C5EB053319010C44A4B200F0B8F900284CD1402021460DF10702012300F02FF9044607282FD1234B1B7813F0020FFAD0214B1B7813F035
:401D4000020F06D01E4B1B789B0805D04FF0FF3403E04FF0FF3400E00024E4B9194B402029461A785B7800F04BF9072816D1144B1B7813F0020FFAD0114B1B7813F0020FEB
:401D80000FD00F4B1B789B0810D04FF0FF340DE0012809D10AE04FF0FF3407E04FF0FF3404E04FF0FF3401E04FF0FF3400F092F902E0012400E00424204603B030BD00BFC5
:401DC00022470040FCC5FF1F38B50446FFF7FCFA054600F097F804F1804000F500400478E4B200F09DF82846FFF7F2FA204638BD10B500F09DF800F047F9D0B900F086F9D0
:401E00000446072812D102E00120FFF7DFFB0A4B1B7813F0020FF7D0074B1B7813F0020F04D0054B1B789B0800D1002400F052F900E00424204610BD2247004010B500F094
:401E400077F800F021F910BB012000F0FFF8072818D11048022100F07DF802280AD102E00120FFF7B3FB0C4B1B7813F0020FF7D0002409E0084B1B7813F0020FE9D04FF0AE
:401E8000FF3401E04FF0FF3400F024F900E00424204610BDFCC5FF1F2247004008B5FFF7A7FF034610B9FFF7C9FF0346184608BD08B5FFF789FA0F4A137843F0080313705C
:401EC0001032137843F008031370C8220A4B1A700A4A137843F0100313701032137843F010031370064B1B7813F0200FFAD0FFF76FFA08BDA043004001470040AC4300406F
:401F000000470040054A137843F001031370034B1B7813F0020FFAD0704700BF02470040024A137803F0FE03137070470247004008B5FFF749FA064A137843F008031370A8
:401F40001032137843F008031370FFF741FA08BDA043004070B506460D4600240CE00120FFF734FB064B1B7813F0010FF7D0054B1B7833550134E4B2AC42F3D3204670BD65
:401F8000224700402047004030B43E2801D81F2B03D93F2827D90F2B27D8174C247814F0020F24D0154CB6252570D4252570012525700234247814F0020F1AD10F4C207009
:401FC000C1F300202070C9B22170591EC9B22170002104E0545C094804700131C9B29942F8D3072006E0012004E0012002E0042000E0092030BC70472247004020470040EC
:4020000030B4104C247814F0020F15D00E4CB6252570D8252570052525700234247814F0020F0BD1084C2070080A2070C9B2217022702370072002E0042000E0092030BC13
:40204000704700BF22470040204700400C4B1B7813F0020F0FD00B4BB6221A70E1221A700E221A7002331B7813F0020F05D1054B187007207047042070470920704700BFDC
:40208000224700402047004010B5FFF79DF90F4B1B78A3B901220D4B1A700D4B1B6813F0010F0ED00A4A136823F00103136000BF00BF00BF0122054B5A60002402E0042474
:4020C00000E00024FFF784F9204610BD40C2FF1F0400084008B5FFF777F90A4B00221A705B68012B0AD1084A136843F00103136000BF00BF00BF0022024B5A60FFF768F9A8
:4021000008BD00BF40C2FF1F04000840074B1B7813F0020F08D0064BB6221A70E0221A700D221A7007207047042070472247004020470040014B1868704700BF90C1FF1F2C
:402140000E4B70B51E460E4C0025E41AA410A54204D056F8253098470135F8E700F084FF084B094C1E46E41AA4100025A54204D056F8253098470135F8E770BD7430000081
:4021800074300000743000007C30000010B5431E0A44914204D011F8014B03F8014FF8E710BD03460244934202D003F8011BFAE7704700000FB40A4B13B51C6824B1A3699A
:4021C00013B9204600F04EF805AB2046A168049A019300F04DF902B0BDE8104004B0704790C1FF1F014900F0A7B800BF212D000010B5044600230360436083608181436603
:40220000C28103614361836119465C300822FFF7C8FF054B24626362044BA362044BE362044B236310BD00BFCD290000EF290000272A00004B2A000070B568234D1E5D432A
:402240000E4605F1740100F095F8044640B1002180E842000C30A06005F16802FFF7A1FF204670BD836910B5044633BB8364C3640365124B124A1B688262984204BF012317
:40228000836100F01FF86060204600F01BF8A060204600F017F80421E06000226068FFF7A7FFA06809210122FFF7A2FFE06812210222FFF79DFF0123A36110BDD02F0000A9
:4022C000E5210000F8B51B4B07461E68B36913B93046FFF7C7FF4836B4687368013B04D4B4F90C5075B16834F8E733682BB938460421FFF7A1FF306008B13668ECE70C2304
:402300003B60F8BD4FF6FF73E3810123A38165662560A560656025616561A56104F15C0029460822FFF73DFF6563A563A564E5642046F8BDD02F00002DE9F8438046894640
:4023400000F14804002694B1A5686768013F0CD4AB89012B07D9B5F90E30013303D040462946C84706436835F0E72468EBE73046BDE8F88370B5CC1C24F0030408340C2C35
:4023800038BF0C24002C064603DA0C233360002070BD8C42F9D3204A136810461946A1B10A68121B0ED40B2A03D90A608B188C501FE08B420BBF5A684A6802605A6018BF94
:4023C0000B4616E00B464968E9E7144D2B681BB9304600F0EBFA28603046214600F0E6FA421C0346D1D0C51C25F0030585420AD11C6003F10B001A1D20F00700821A0AD055
:402400005142995070BD3046E91A00F0CFFA0130BBD02B46ECE770BD4CC2FF1F48C2FF1F936810B5013B002B936009DA9469A34202DBCBB20A2B03D1BDE8104000F00ABB54
:402440001368581C10601970C8B210BDF8B506460F461446D518AC4208D0304614F8011B3A46FFF7DDFF431CF5D100E00020F8BD2DE9F0439DB00D4690460393064618B19E
:4024800083690BB9FFF7EEFE754B9D4201D1756808E0744B9D4201D1B56803E0724B9D4208BFF568AB891C070AD52B6943B10023099320238DF8293030238DF82A3041E033
:4024C0003046294600F02CFB0028F0D04FF0FF30C2E0039A0134111D12680391002ABBBF524243F0020307920792B8BF049323782E2B7BD0DFF8808121784046032200F0DF
:4025000097FC38B1049AC8EB00004023834013430493013421785548062204F101088DF8281000F085FC002800F08580504B002B78D1039B073323F0070308330393099B66
:402540003B44099343461C4613F8012B1AB9B4EB08090ED002E0252AF5D1F8E73046294642464B46FFF772FF013070D0099B4B4409932378002B6AD000234FF0FF32049318
:402580000793059206938DF853301A9304F101084446DFF8E89021784846052200F048FC08F10108049B30B1C9EB00000122824013430493ECE7D80644BF20228DF853204D
:4025C000190744BF2B228DF8532022782A2A80D0234607991C4622780133303A092A03D80A2000FB0121F5E7079180E763782A2B0AD1039B02341A1D1B680392002BB8BF92
:402600004FF0FF33059375E7611C00220C4623780131303B092B03D80A2000FB0232F5E7059267E703AB0093304604A92A46114BAFF3008007E003AB0093304604A92A46D6
:402640000C4B00F093F8421C07467FF478AFAB895B063FF53BAF09981DB0BDE8F08300BFD42F0000F42F0000143000003E300000000000004D2400003A3000003430000034
:402680002DE9F84391461F468A680B6906469342B8BF1346C9F8003091F843200C46DDF8208012B10133C9F800302368990642BFD9F800300233C9F80030256815F00605BB
:4026C0001CD094F843302268003318BF012392061FD5E118302081F843005A1C94F845102244023382F8431013E03046394604F119020123C047013007D00135E368D9F86A
:4027000000209B1A9D42F0DBDBE74FF0FF30BDE8F8833046394604F14302C0470130F4D02268D9F80050E36802F00602042A08BF5D1B2269A3680CBF25EAE575002593427E
:40274000C4BF9B1AED184FF00009A9450ADA3046394604F11A020123C0470130D5D009F10109F2E70020BDE8F88300002DE9FF410C461746227E98466E2A06460A9B01F1E0
:40278000430100F0B08012D8632A23D00AD8002A00F0BD80582A40F0CC8084F84520DFF804E257E0642A1ED0692A1CD0C1E0732A00F0B18009D86F2A2ED0702A40F0B9806A
:4027C000226842F0200222603FE0752A24D0782A3BD0AEE01A6804F14205111D1960136884F84230A9E020681A6810F0800F02D0101D186008E010F0400F02F1040018607F
:4028000002D0B2F9003000E01368002B3EDA2D225B4284F8432039E020681A6810F0800F02D0101D186007E010F0400F02F10400186001D0138800E01368227EDFF864E131
:402840006F2A0CBF08220A221CE07822DFF858E184F845202268186812F0800F00F104051D6003D1550601D5038800E00368D00744BF42F0200222601BB9226822F02002E8
:4028800022601022002084F8430002E0DFF814E10A226568002DA8BF2068A560A4BF20F00400206003B965B10D46B3FBF2F002FB10331EF8033005F8013D03460028F4D117
:4028C00000E00D46082A0BD12368DA0708D5236962689A42DEBF302305F8013C05F1FF35491B21612EE025681A6815F0800F606903D0151D1D60136808E015F0400F02F13C
:4029000004051D60136801D0188000E01860002323610D4616E01A68111D1960156800212846626800F084FA08B1401B6060636804E004F1420584F8422001232361002310
:4029400084F84330CDF800803046214603AA3B46FFF796FE013002D14FF0FF301FE0304639462A462369C0470130F5D023689B0705D4E068039B9842B8BF18460FE0002580
:40298000E368039A9B1A9D42F3DA3046394604F119020123C0470130DED00135F0E704B0BDE8F081453000005630000038B5064C0023054608462360FEF714FB431C02D139
:4029C000236803B12B6038BD00C6FF1F10B50C46B1F90E1000F07EFA0028ABBF636DA3891B1823F48053ACBF6365A38110BD2DE9F0411D468B890746DB050C46164605D5AB
:402A0000B1F90E100022022300F0B4F9A389384623F48053A381B4F90E1032462B46BDE8F04100F06BB810B50C46B1F90E1000F0A1F9431CA38915BF606523F4805343F4E7
:402A40008053A38118BFA38110BDB1F90E1000F0D3B8000070B50D461446064618B183690BB9FFF7FFFB224B9C4201D1746808E0204B9C4201D1B46803E01F4B9C4208BFC3
:402A8000F468A369A360A3891A0709D523693BB123682069EDB2181A636998420FDB08E03046214600F03CF80028F1D04FF0FF3070BD3046214600F033F90028F6D1A36833
:402AC0000130013BA36023685A1C22601D706369984204D0A389DB0707D50A2D05D13046214600F01DF90028E0D1284670BD00BFD42F0000F42F00001430000038B5074C25
:402B0000054600202060084611461A46FDF72CFB431C02D1236803B12B6038BD00C6FF1F314B70B51D6806460C4625B1AB6913B92846FFF797FB2D4B9C4201D16C6808E061
:402B40002B4B9C4201D1AC6803E02A4B9C4208BFEC68A3899AB211071DD4D50602D40922326038E0500712D5616B41B104F14403994202D0304600F069F900236363A38901
:402B800023F02403A3810023636023692360A38943F00803A38123694BB9A38903F42073B3F5007F03D03046214600F0F5F8A38913F0010205D00022A26062695242A261AD
:402BC00003E0990758BF6269A26022694AB903F0800080B230B143F04003A3814FF0FF3070BD002070BD00BF90C1FF1FD42F0000F42F00001430000038B5064C0023054693
:402C00000846236000F09AF9431C02D1236803B12B6038BD00C6FF1F8A892DE9F041054610070C4657D44B68002B02DC0B6C002B18DDE66AB6B102F48052002392B22F6862
:402C40002B600AB1626D10E0216A28460123B047411C024609D12B683BB11D2B01D0162B46D12F600020BDE8F081A3895B0705D56368D21A636B0BB1236CD21AE66A002370
:402C80002846216AB047461CA38905D12A681AB11D2A01D0162A19D1002262602269D904226004D5421C01D12B6803B96065616B2F600029D6D004F14403994202D02846B5
:402CC00000F0C4F800206063BDE8F08143F04003A381BDE8F0810F69002FC3D093070E680CBF4B690023C7EB06080F608B6012E0A3894FF0FF3043F04003A381BDE8F0813D
:402D00002846216A3A464346A66AB0470028EFDD0744C0EB0808B8F1000FF1DCA2E7000038B50B6905460C46DBB118B183690BB9FFF798FA0C4B9C4201D16C6808E00B4BDE
:402D40009C4201D1AC6803E0094B9C4208BFEC68B4F90C302BB128462146BDE83840FFF75BBF002038BD00BFD42F0000F42F00001430000038B5074C0546002020600846E1
:402D800011461A4600F0F2F8431C02D1236803B12B6038BD00C6FF1FF0B58B8991B09D0706460C4625D4B1F90E10002908DAA389002513F0800F14BF40274FF480670DE071
:402DC00001AA00F099F80028F1DB029D4FF4806705F47045A5F500514D424D4130463946FFF7C8FA60B9A3899A051DD443F00203A38104F14703236023610123636113E035
:402E00000A4BB362A389206043F08003A381206167614DB13046B4F90E1000F07FF818B1A38943F00103A38111B0F0BDE521000010B5C9B202449042034605D01C780130B4
:402E40008C42F8D1184610BD002010BD30B500293CD051F8042C0B1F1D49002AB8BF9B180A680C4612B95A600B6030BD93420DD219685818904201BF5A5852181A60426814
:402E800023605A6030BD994203D80A4651680029F9D1146815199D420AD11B682344D0188842136012D10868034413604B680CE002D90C23036030BD1C681819884201BF7E
:402EC00008684968001918605960536030BD00BF4CC2FF1F38B5074C054600202060084611461A4600F04AF8431C02D1236803B12B6038BD00C6FF1F38B5074C00230546F7
:402F000008461146236000F021F8431C02D1236803B12B6038BD00BF00C6FF1F38B5064C002305460846236000F018F8431C02D1236803B12B6038BD00C6FF1F024B5822B2
:402F40001A604FF0FF30704700C6FF1F024B58221A604FF0FF30704700C6FF1F024B58221A600020704700BF00C6FF1F024B58221A604FF0FF30704700C6FF1F024B5822B8
:402F80001A604FF0FF30704700C6FF1F0000000053706565643A2564200D0A00004F00400C00505100402000C0510040100000000140001000140140000800400140000A6D
:402FC000004C014000020050014020004300000030C1FF1F00000000000000000000000000000000000000000000000000000000000000000000000000000000000000003F
:4030000000000000000000000000000000000000000000000000000000000000000000000000000000000000000000000000000000000000232D302B2000686C4C006566DA
:4030400067454647003031323334353637383941424344454600303132333435363738396162636465660000F8B500BFF8BC08BC9E4670474D00000061100000F8B500BF6A
:40308000F8BC08BC9E46704729000000A030000008C1FF1F900000007004000000000000000000000808000008C6FF1F7F800000030000000000E02EC05D000018000000D8
:4030C00000366E01FFFFFFFF00000000D42F0000F42F00001430000000000000000000000000000000000000CC2F00000000000000000000000000000000000000000000CA
:403100000000000000000000000000000000000000000000000000000000000000000000000000000000000030C1FF1F000000000000000000000000000000000000000080
:40314000000000000000000000000000000000000000000000000000000000000000000000000000000000000000000000000000000000000000000000000000000000004F
:40318000000000000000000000000000000000000000000000000000000000000000000000000000000000000000000000000000000000000000000000000000000000000F
:4031C00000000000000000000000000000000000000000000000000000000000000000000000000000000000000000000000000000000000000000000000000000000000CF
:40320000000000000000000000000000000000000000000000000000000000000000000000000000000000000000000000000000000000000000000000000000000000008E
:020000040001F9
:0200000480007A
:40000000024F004008520040015B004002640040026500402D000140310101405A02014041030140200401404205014043060140450701400408014003090140010B0140BE
:400040002D1401404B1501404016014054170140181801402F1901400A1B01401240014014410140094201400B43014006460140034701400A48014008490140034C0140A9
:40008000034D0140095001400251014001800A1B0013013604C01C042003210124FC79082784810F84088572863809020D031B011D03350339203F10580459045F01810377
:4000C000850388038B038D018E038F0291049503980199019A029B029D04A003A304A403A704A803AB04AE03AF03B201B302B402B501B704BF40D401D604D804D904DB0447
:40010000DD10DF0100100180022003080410058008080C10110512011408150516011C201D20200826402724281029822A012B482CA02D802E2030243280341C36A138A05A
:4001400039053A203C103D053F805E805F1A6740830484808750C0C7C244C4FDCAFFCCFECEFFD6F0D880002C0211041C0622084009400C300E0C1103131C1409152A16103B
:40018000171418141B281D031E031F3421032304241027152B20310F32603540361F373838083B823F104052410145CB46E0480B49FF4AFF4BFF4EF04F44500C5608580495
:4001C00059045A045B045C115D915F0166C06A406B028010840C860394109A0CA001A20EA603AA08AC01AE06B010B20FB802BA08BE01C006C704C9FFCA07CBFFCC40CD2044
:40020000CEF0CF05D008D804D904DA04DC01DD01DF01E040E1A8E240E320010803400482050806080A100B080C400E210F08102812821508186019081E211F0424822540B9
:4002400026832708280829822CA82E08322035083691381039053A013F204540460848244C804E024F085008510457105D406680814094B095059C089D829F0AA014A4A0FF
:40028000A6A1AF20B120C0FCC2E6C42FCAEDCCF4CE27D030D214D610D810EE800B011A01300133015602573D580459045B0C5F018101850189018D018E019001950196010D
:4002C0009A019B019F01A401A801AC01B101B201D203D302D804D904DB04DF010184058009080A480D080E400F04100412211304140C1504160119021A401E202010210808
:400300002740280829823108322034083580362039143A033C103D043E425A106040681269116A086E106F02720473017B028A10904094109504961098409A809C089D824A
:400340009E01A620AB40B010B712C085C27EC4E7CA0DCC76CEF7D604D801DE08E280EE8102040304042008200C011101120816011A101B031C20220224202A082B042E10F8
:4003800030103101320334203504360C37023E513F104032410642054401450C470E481149FF4AFF4BFF4C624DA04EF04F41500C54015804590C5A045B0C5C095D015F01CE
:4003C0006640670269106A306B106D106E106F128501910195019901A101A901AF01B501D804D904DF0101040201048005140740080109080A400B040E200F8A10041108FE
:4004000015C0168017141D801E281F01211024C02709280829802A012F083001310832203610370139043D0245A047044D404E044F0857085C407F028C409111924493052F
:40044000950498449A809C089D809E01A012A108A302A620B740C0F5C2FEC4F6CA2DCCA7CE82D070D230D610DE10E244EA10EE04B802BE01D804DF011B028302EE04EE0107
:400480002F013501580459045F0180C78218841C853F86C1889C8A428CDF8D128F0C90049101941899249AC39B0A9C109D089F30A020A408A93FAA04B098B138B258B306F5
:4004C000B41FB501B620BA28BE40D602D712D804D904DB04DC11DD10DF01010602030481051409080AC00B040C880D200F8010201108144017281C501D9421102220230433
:40050000240425202750280129022F083020310832423751384039A43E043F805E086E046F097488762A7708834089808C018F0490809104924094149580984199029A01D7
:400540009B249D149E2A9F50A10CA204A520A620A740AA01AD11B105B610C0FDC2FEC474CA29CCBFCE56D640E220E812EA04EC02010807C3090F0BD00D410E030F20100100
:4005800011821202140115D31602170C1803190C1BD31DC32402250426012803290C2C032DDF3110320233203401350F37C039023B2054185604580459045B045C105D10B8
:4005C0005F018201860488088E0292089410962098019C02A004A440A680A820AA10AC80AE40B2FFBA02BE04D804D904DC01DF01002001060201058009080A440B010D0924
:400600000E400F04100311111220130414081504160118801A101B031F14240125012724280829802A012E282F02310832203511374439063C143E023F80461047085C017F
:400640006610674281098220831084088502874088108A048B148F019131924493039584984099809B089C089D149E019F54A012A10CA204A521A620A741AE04AF01B58497
:40068000C08FC27FC4EFCA7DCCF6CEF3D680D8B0E001E2A0E401E60801010A010B080F011604170219082102250426022B042F1030023204331F340139083F045804590487
:4006C0005F01D804D904DF010312048007180B280C900D081010114012021302160A17061F162504271028902C802EA82F103312348036223704388039403A023B203D8867
:400700003E023F1080C083028602870489488B108F049F10B710C0E5C2E6C4FDCAF3CCF5CEFDE4B0EE40A880AB02AC10AE20B220B318B680E812EA20EC9012801680338433
:40074000364037023B023E8055105D8081108702C430CCF0CE60D440D620E280E640571258406304674069046B048280930497029F04A280A640A780AF04B180D4C0D620A6
:40078000D8C0E420EA4011048840950497429C40A640A790B302C410610181018F809740A640A780AB01B710D840E220EE201B042601A601AA01C608C8014402AB04D00438
:4007C00024085840864088408B409740A640C820D480E6400302531083028B10B404C040D420E0205B019C02D602AF01B402E80800030101080309010A030B0110031A03FE
:400800001C0100EF100A0000C00000C0000000373700000000000000000808000000000000101000001C1C0000000000080004080800080000000000FC0000FC000000031D
:400840000300000000010000000000000000000000000000000000000000000000000000000000000000000000000000000000000000000000000000000000000000000074
:400880000000000000000000000000000000000000000000000000000000000000000000000000000000000000000000000000000000000000000000000000000000000038
:4008C00000000000000000000000000000000000000000000000000000000000000000000000000000000000000000000000000000000000000000000000000000000000F8
:4009000000000000000000000000000000000000000000000000000000000000000000000000000000000000000000000000000000000000000000000000000000000000B7
:400940000000000000000000000000000000000000000000000000000000000000000000000000000000000000000000000000000000000000000000000000000000000077
:0200000490006A
:0400000000004005B7
:0200000490105A
:04000000BC90ACAF55
:0200000490303A
:020000001A42A2
:0200000490402A
:4000000000000000000000000000000000000000000000000000000000000000000000000000000000000000000000000000000000000000000000000000000000000000C0
:400040000000000000000000000000000000000000000000000000000000000000000000000000000000000000000000000000000000000000000000000000000000000080
:0200000490501A
:0C00000000012E13306900012E284AABCD
:00000001FF